{
  "contractName": "AuctionContract",
  "abi": [
    {
      "constant": true,
      "inputs": [
        {
          "name": "",
          "type": "uint256"
        }
      ],
      "name": "auctions",
      "outputs": [
        {
          "name": "name",
          "type": "string"
        },
        {
          "name": "blockDeadline",
          "type": "uint256"
        },
        {
          "name": "metadata",
          "type": "string"
        },
        {
          "name": "deedId",
          "type": "uint256"
        },
        {
          "name": "startPrice",
          "type": "uint256"
        },
        {
          "name": "owner",
          "type": "address"
        },
        {
          "name": "active",
          "type": "bool"
        },
        {
          "name": "finalized",
          "type": "bool"
        }
      ],
      "payable": false,
      "stateMutability": "view",
      "type": "function"
    },
    {
      "inputs": [
        {
          "name": "_deedRepositoryAddress",
          "type": "address"
        }
      ],
      "payable": false,
      "stateMutability": "nonpayable",
      "type": "constructor"
    },
    {
      "anonymous": false,
      "inputs": [
        {
          "indexed": false,
          "name": "_from",
          "type": "address"
        },
        {
          "indexed": false,
          "name": "_auctionId",
          "type": "uint256"
        }
      ],
      "name": "BidSuccess",
      "type": "event"
    },
    {
      "anonymous": false,
      "inputs": [
        {
          "indexed": false,
          "name": "_owner",
          "type": "address"
        },
        {
          "indexed": false,
          "name": "_auctionId",
          "type": "uint256"
        }
      ],
      "name": "AuctionCreated",
      "type": "event"
    },
    {
      "anonymous": false,
      "inputs": [
        {
          "indexed": false,
          "name": "_owner",
          "type": "address"
        },
        {
          "indexed": false,
          "name": "_auctionId",
          "type": "uint256"
        }
      ],
      "name": "AuctionCanceled",
      "type": "event"
    },
    {
      "anonymous": false,
      "inputs": [
        {
          "indexed": false,
          "name": "_owner",
          "type": "address"
        },
        {
          "indexed": false,
          "name": "_auctionId",
          "type": "uint256"
        }
      ],
      "name": "AuctionFinalized",
      "type": "event"
    },
    {
      "constant": true,
      "inputs": [],
      "name": "getAuctionCount",
      "outputs": [
        {
          "name": "",
          "type": "uint256"
        }
      ],
      "payable": false,
      "stateMutability": "view",
      "type": "function"
    },
    {
      "constant": true,
      "inputs": [
        {
          "name": "auctionId",
          "type": "uint256"
        }
      ],
      "name": "getBidsCount",
      "outputs": [
        {
          "name": "",
          "type": "uint256"
        }
      ],
      "payable": false,
      "stateMutability": "view",
      "type": "function"
    },
    {
      "constant": true,
      "inputs": [
        {
          "name": "_owner",
          "type": "address"
        }
      ],
      "name": "getAuctionsOf",
      "outputs": [
        {
          "name": "",
          "type": "uint256[]"
        }
      ],
      "payable": false,
      "stateMutability": "view",
      "type": "function"
    },
    {
      "constant": true,
      "inputs": [
        {
          "name": "_auctionId",
          "type": "uint256"
        }
      ],
      "name": "getCurrentBid",
      "outputs": [
        {
          "name": "",
          "type": "uint256"
        },
        {
          "name": "",
          "type": "address"
        }
      ],
      "payable": false,
      "stateMutability": "view",
      "type": "function"
    },
    {
      "constant": true,
      "inputs": [
        {
          "name": "_owner",
          "type": "address"
        }
      ],
      "name": "getAcutionsCountOfOwner",
      "outputs": [
        {
          "name": "",
          "type": "uint256"
        }
      ],
      "payable": false,
      "stateMutability": "view",
      "type": "function"
    },
    {
      "constant": true,
      "inputs": [
        {
          "name": "_auctionId",
          "type": "uint256"
        }
      ],
      "name": "getAuctionById",
      "outputs": [
        {
          "name": "name",
          "type": "string"
        },
        {
          "name": "blockDeadline",
          "type": "uint256"
        },
        {
          "name": "startPrice",
          "type": "uint256"
        },
        {
          "name": "metadata",
          "type": "string"
        },
        {
          "name": "deedId",
          "type": "uint256"
        },
        {
          "name": "owner",
          "type": "address"
        },
        {
          "name": "active",
          "type": "bool"
        },
        {
          "name": "finalized",
          "type": "bool"
        }
      ],
      "payable": false,
      "stateMutability": "view",
      "type": "function"
    },
    {
      "constant": false,
      "inputs": [
        {
          "name": "_deedId",
          "type": "uint256"
        },
        {
          "name": "_auctionTitle",
          "type": "string"
        },
        {
          "name": "_metadata",
          "type": "string"
        },
        {
          "name": "_startPrice",
          "type": "uint256"
        },
        {
          "name": "_blockDeadline",
          "type": "uint256"
        }
      ],
      "name": "createAuction",
      "outputs": [
        {
          "name": "",
          "type": "bool"
        }
      ],
      "payable": false,
      "stateMutability": "nonpayable",
      "type": "function"
    },
    {
      "constant": false,
      "inputs": [
        {
          "name": "_from",
          "type": "address"
        },
        {
          "name": "_to",
          "type": "address"
        },
        {
          "name": "_deedId",
          "type": "uint256"
        }
      ],
      "name": "approveAndTransfer",
      "outputs": [
        {
          "name": "",
          "type": "bool"
        }
      ],
      "payable": false,
      "stateMutability": "nonpayable",
      "type": "function"
    },
    {
      "constant": false,
      "inputs": [
        {
          "name": "_auctionId",
          "type": "uint256"
        }
      ],
      "name": "cancelAuction",
      "outputs": [],
      "payable": false,
      "stateMutability": "nonpayable",
      "type": "function"
    },
    {
      "constant": false,
      "inputs": [
        {
          "name": "_auctionId",
          "type": "uint256"
        }
      ],
      "name": "finalizeAuction",
      "outputs": [],
      "payable": false,
      "stateMutability": "nonpayable",
      "type": "function"
    },
    {
      "constant": false,
      "inputs": [
        {
          "name": "_auctionId",
          "type": "uint256"
        }
      ],
      "name": "bidOnAuction",
      "outputs": [],
      "payable": true,
      "stateMutability": "payable",
      "type": "function"
    }
  ],
  "bytecode": "0x608060405234801561001057600080fd5b5060405160208061219e8339810180604052602081101561003057600080fd5b8101908080519060200190929190505050806000806101000a81548173ffffffffffffffffffffffffffffffffffffffff021916908373ffffffffffffffffffffffffffffffffffffffff1602179055505061210d806100916000396000f3fe6080604052600436106100b4576000357c0100000000000000000000000000000000000000000000000000000000900480630e20cc85146100b957806318111ada1461014c5780631f1353fb146102ca57806326b7aeea1461045f5780634008f9c01461048d578063571a26a0146104dc57806396b5a7551461065a578063b1b61bfa14610695578063c44e66401461073b578063c534623f14610766578063da4e364f146107cb578063e80838631461084d575b600080fd5b3480156100c557600080fd5b50610132600480360360608110156100dc57600080fd5b81019080803573ffffffffffffffffffffffffffffffffffffffff169060200190929190803573ffffffffffffffffffffffffffffffffffffffff16906020019092919080359060200190929190505050610888565b604051808215151515815260200191505060405180910390f35b34801561015857600080fd5b506101856004803603602081101561016f57600080fd5b8101908080359060200190929190505050610a65565b6040518080602001898152602001888152602001806020018781526020018673ffffffffffffffffffffffffffffffffffffffff1673ffffffffffffffffffffffffffffffffffffffff168152602001851515151581526020018415151515815260200183810383528b818151815260200191508051906020019080838360005b83811015610221578082015181840152602081019050610206565b50505050905090810190601f16801561024e5780820380516001836020036101000a031916815260200191505b50838103825288818151815260200191508051906020019080838360005b8381101561028757808201518184015260208101905061026c565b50505050905090810190601f1680156102b45780820380516001836020036101000a031916815260200191505b509a505050505050505050505060405180910390f35b3480156102d657600080fd5b50610445600480360360a08110156102ed57600080fd5b81019080803590602001909291908035906020019064010000000081111561031457600080fd5b82018360208201111561032657600080fd5b8035906020019184600183028401116401000000008311171561034857600080fd5b91908080601f016020809104026020016040519081016040528093929190818152602001838380828437600081840152601f19601f820116905080830192505050505050509192919290803590602001906401000000008111156103ab57600080fd5b8201836020820111156103bd57600080fd5b803590602001918460018302840111640100000000831117156103df57600080fd5b91908080601f016020809104026020016040519081016040528093929190818152602001838380828437600081840152601f19601f8201169050808301925050505050505091929192908035906020019092919080359060200190929190505050610c4a565b604051808215151515815260200191505060405180910390f35b61048b6004803603602081101561047557600080fd5b8101908080359060200190929190505050610fe5565b005b34801561049957600080fd5b506104c6600480360360208110156104b057600080fd5b8101908080359060200190929190505050611310565b6040518082815260200191505060405180910390f35b3480156104e857600080fd5b50610515600480360360208110156104ff57600080fd5b8101908080359060200190929190505050611330565b6040518080602001898152602001806020018881526020018781526020018673ffffffffffffffffffffffffffffffffffffffff1673ffffffffffffffffffffffffffffffffffffffff168152602001851515151581526020018415151515815260200183810383528b818151815260200191508051906020019080838360005b838110156105b1578082015181840152602081019050610596565b50505050905090810190601f1680156105de5780820380516001836020036101000a031916815260200191505b50838103825289818151815260200191508051906020019080838360005b838110156106175780820151818401526020810190506105fc565b50505050905090810190601f1680156106445780820380516001836020036101000a031916815260200191505b509a505050505050505050505060405180910390f35b34801561066657600080fd5b506106936004803603602081101561067d57600080fd5b81019080803590602001909291905050506114f1565b005b3480156106a157600080fd5b506106e4600480360360208110156106b857600080fd5b81019080803573ffffffffffffffffffffffffffffffffffffffff169060200190929190505050611971565b6040518080602001828103825283818151815260200191508051906020019060200280838360005b8381101561072757808201518184015260208101905061070c565b505050509050019250505060405180910390f35b34801561074757600080fd5b50610750611a0e565b6040518082815260200191505060405180910390f35b34801561077257600080fd5b506107b56004803603602081101561078957600080fd5b81019080803573ffffffffffffffffffffffffffffffffffffffff169060200190929190505050611a1b565b6040518082815260200191505060405180910390f35b3480156107d757600080fd5b50610804600480360360208110156107ee57600080fd5b8101908080359060200190929190505050611a67565b604051808381526020018273ffffffffffffffffffffffffffffffffffffffff1673ffffffffffffffffffffffffffffffffffffffff1681526020019250505060405180910390f35b34801561085957600080fd5b506108866004803603602081101561087057600080fd5b8101908080359060200190929190505050611b5d565b005b6000806000809054906101000a900473ffffffffffffffffffffffffffffffffffffffff1690508073ffffffffffffffffffffffffffffffffffffffff1663095ea7b385856040518363ffffffff167c0100000000000000000000000000000000000000000000000000000000028152600401808373ffffffffffffffffffffffffffffffffffffffff1673ffffffffffffffffffffffffffffffffffffffff16815260200182815260200192505050600060405180830381600087803b15801561095257600080fd5b505af1158015610966573d6000803e3d6000fd5b505050508073ffffffffffffffffffffffffffffffffffffffff166323b872dd8686866040518463ffffffff167c0100000000000000000000000000000000000000000000000000000000028152600401808473ffffffffffffffffffffffffffffffffffffffff1673ffffffffffffffffffffffffffffffffffffffff1681526020018373ffffffffffffffffffffffffffffffffffffffff1673ffffffffffffffffffffffffffffffffffffffff1681526020018281526020019350505050600060405180830381600087803b158015610a4157600080fd5b505af1158015610a55573d6000803e3d6000fd5b5050505060019150509392505050565b60606000806060600080600080600060018a815481101515610a8357fe5b9060005260206000209060060201905080600001816001015482600401548360020184600301548560050160009054906101000a900473ffffffffffffffffffffffffffffffffffffffff168660050160149054906101000a900460ff168760050160159054906101000a900460ff16878054600181600116156101000203166002900480601f016020809104026020016040519081016040528092919081815260200182805460018160011615610100020316600290048015610b885780601f10610b5d57610100808354040283529160200191610b88565b820191906000526020600020905b815481529060010190602001808311610b6b57829003601f168201915b50505050509750848054600181600116156101000203166002900480601f016020809104026020016040519081016040528092919081815260200182805460018160011615610100020316600290048015610c245780601f10610bf957610100808354040283529160200191610c24565b820191906000526020600020905b815481529060010190602001808311610c0757829003601f168201915b505050505094508292509850985098509850985098509850985050919395975091939597565b60008560008060009054906101000a900473ffffffffffffffffffffffffffffffffffffffff1673ffffffffffffffffffffffffffffffffffffffff16636352211e836040518263ffffffff167c01000000000000000000000000000000000000000000000000000000000281526004018082815260200191505060206040518083038186803b158015610cdd57600080fd5b505afa158015610cf1573d6000803e3d6000fd5b505050506040513d6020811015610d0757600080fd5b810190808051906020019092919050505090503373ffffffffffffffffffffffffffffffffffffffff168173ffffffffffffffffffffffffffffffffffffffff16141515610d5457600080fd5b60006001805490509050610d66611fac565b888160000181905250858160200181815250508681608001818152505087816040018190525089816060018181525050338160a0019073ffffffffffffffffffffffffffffffffffffffff16908173ffffffffffffffffffffffffffffffffffffffff168152505060018160c001901515908115158152505060008160e0019015159081151581525050600181908060018154018082558091505090600182039060005260206000209060060201600090919290919091506000820151816000019080519060200190610e3a92919061200c565b50602082015181600101556040820151816002019080519060200190610e6192919061200c565b50606082015181600301556080820151816004015560a08201518160050160006101000a81548173ffffffffffffffffffffffffffffffffffffffff021916908373ffffffffffffffffffffffffffffffffffffffff16021790555060c08201518160050160146101000a81548160ff02191690831515021790555060e08201518160050160156101000a81548160ff021916908315150217905550505050600360003373ffffffffffffffffffffffffffffffffffffffff1673ffffffffffffffffffffffffffffffffffffffff1681526020019081526020016000208290806001815401808255809150509060018203906000526020600020016000909192909190915055507f3249a06bd478adf780bb7930214ad005e9cfa517d63221c0b77f27199d1a58b33383604051808373ffffffffffffffffffffffffffffffffffffffff1673ffffffffffffffffffffffffffffffffffffffff1681526020018281526020019250505060405180910390a1600194505050505095945050505050565b6000600182815481101515610ff657fe5b9060005260206000209060060201905060003490508160050160009054906101000a900473ffffffffffffffffffffffffffffffffffffffff1673ffffffffffffffffffffffffffffffffffffffff163373ffffffffffffffffffffffffffffffffffffffff16141561106857600080fd5b816001015442111561107957600080fd5b6000600260008581526020019081526020016000208054905090506000836004015490506110a561208c565b60008311156111545760026000878152602001908152602001600020600184038154811015156110d157fe5b90600052602060002090600202016040805190810160405290816000820160009054906101000a900473ffffffffffffffffffffffffffffffffffffffff1673ffffffffffffffffffffffffffffffffffffffff1673ffffffffffffffffffffffffffffffffffffffff1681526020016001820154815250509050806020015191505b8184101561116157600080fd5b60008311156111bf5760008160000151905060008190508073ffffffffffffffffffffffffffffffffffffffff166108fc84602001519081150290604051600060405180830381858888f1935050505015156111bc57600080fd5b50505b6111c761208c565b33816000019073ffffffffffffffffffffffffffffffffffffffff16908173ffffffffffffffffffffffffffffffffffffffff16815250508481602001818152505060026000888152602001908152602001600020819080600181540180825580915050906001820390600052602060002090600202016000909192909190915060008201518160000160006101000a81548173ffffffffffffffffffffffffffffffffffffffff021916908373ffffffffffffffffffffffffffffffffffffffff160217905550602082015181600101555050507f5762e6a7d331cd17a1761e94de3ea3b85e90ee6cdd9d1204e361cc650689d4633388604051808373ffffffffffffffffffffffffffffffffffffffff1673ffffffffffffffffffffffffffffffffffffffff1681526020018281526020019250505060405180910390a150505050505050565b600060026000838152602001908152602001600020805490509050919050565b60018181548110151561133f57fe5b9060005260206000209060060201600091509050806000018054600181600116156101000203166002900480601f0160208091040260200160405190810160405280929190818152602001828054600181600116156101000203166002900480156113eb5780601f106113c0576101008083540402835291602001916113eb565b820191906000526020600020905b8154815290600101906020018083116113ce57829003601f168201915b505050505090806001015490806002018054600181600116156101000203166002900480601f01602080910402602001604051908101604052809291908181526020018280546001816001161561010002031660029004801561148f5780601f106114645761010080835404028352916020019161148f565b820191906000526020600020905b81548152906001019060200180831161147257829003601f168201915b5050505050908060030154908060040154908060050160009054906101000a900473ffffffffffffffffffffffffffffffffffffffff16908060050160149054906101000a900460ff16908060050160159054906101000a900460ff16905088565b803373ffffffffffffffffffffffffffffffffffffffff1660018281548110151561151857fe5b906000526020600020906006020160050160009054906101000a900473ffffffffffffffffffffffffffffffffffffffff1673ffffffffffffffffffffffffffffffffffffffff1614151561156c57600080fd5b611574611fac565b60018381548110151561158357fe5b90600052602060002090600602016101006040519081016040529081600082018054600181600116156101000203166002900480601f0160208091040260200160405190810160405280929190818152602001828054600181600116156101000203166002900480156116375780601f1061160c57610100808354040283529160200191611637565b820191906000526020600020905b81548152906001019060200180831161161a57829003601f168201915b5050505050815260200160018201548152602001600282018054600181600116156101000203166002900480601f0160208091040260200160405190810160405280929190818152602001828054600181600116156101000203166002900480156116e35780601f106116b8576101008083540402835291602001916116e3565b820191906000526020600020905b8154815290600101906020018083116116c657829003601f168201915b5050505050815260200160038201548152602001600482015481526020016005820160009054906101000a900473ffffffffffffffffffffffffffffffffffffffff1673ffffffffffffffffffffffffffffffffffffffff1673ffffffffffffffffffffffffffffffffffffffff1681526020016005820160149054906101000a900460ff161515151581526020016005820160159054906101000a900460ff161515151581525050905060006002600085815260200190815260200160002080549050905060008111156118ae576117ba61208c565b60026000868152602001908152602001600020600183038154811015156117dd57fe5b90600052602060002090600202016040805190810160405290816000820160009054906101000a900473ffffffffffffffffffffffffffffffffffffffff1673ffffffffffffffffffffffffffffffffffffffff1673ffffffffffffffffffffffffffffffffffffffff168152602001600182015481525050905060008160000151905060008190508073ffffffffffffffffffffffffffffffffffffffff166108fc84602001519081150290604051600060405180830381858888f1935050505015156118aa57600080fd5b5050505b6118c1308360a001518460600151610888565b1561196b5760006001858154811015156118d757fe5b906000526020600020906006020160050160146101000a81548160ff0219169083151502179055507f39e6c898ce035bbacd9ba4f9753534f8c9f976e0ff70be83cfe887f235afa1d33385604051808373ffffffffffffffffffffffffffffffffffffffff1673ffffffffffffffffffffffffffffffffffffffff1681526020018281526020019250505060405180910390a15b50505050565b60606000600360008473ffffffffffffffffffffffffffffffffffffffff1673ffffffffffffffffffffffffffffffffffffffff168152602001908152602001600020905080805480602002602001604051908101604052809291908181526020018280548015611a0157602002820191906000526020600020905b8154815260200190600101908083116119ed575b5050505050915050919050565b6000600180549050905090565b6000600360008373ffffffffffffffffffffffffffffffffffffffff1673ffffffffffffffffffffffffffffffffffffffff168152602001908152602001600020805490509050919050565b6000806000600260008581526020019081526020016000208054905090506000811115611b4957611a9661208c565b6002600086815260200190815260200160002060018303815481101515611ab957fe5b90600052602060002090600202016040805190810160405290816000820160009054906101000a900473ffffffffffffffffffffffffffffffffffffffff1673ffffffffffffffffffffffffffffffffffffffff1673ffffffffffffffffffffffffffffffffffffffff168152602001600182015481525050905080602001518160000151935093505050611b58565b60008081915080905092509250505b915091565b611b65611fac565b600182815481101515611b7457fe5b90600052602060002090600602016101006040519081016040529081600082018054600181600116156101000203166002900480601f016020809104026020016040519081016040528092919081815260200182805460018160011615610100020316600290048015611c285780601f10611bfd57610100808354040283529160200191611c28565b820191906000526020600020905b815481529060010190602001808311611c0b57829003601f168201915b5050505050815260200160018201548152602001600282018054600181600116156101000203166002900480601f016020809104026020016040519081016040528092919081815260200182805460018160011615610100020316600290048015611cd45780601f10611ca957610100808354040283529160200191611cd4565b820191906000526020600020905b815481529060010190602001808311611cb757829003601f168201915b5050505050815260200160038201548152602001600482015481526020016005820160009054906101000a900473ffffffffffffffffffffffffffffffffffffffff1673ffffffffffffffffffffffffffffffffffffffff1673ffffffffffffffffffffffffffffffffffffffff1681526020016005820160149054906101000a900460ff161515151581526020016005820160159054906101000a900460ff16151515158152505090506000600260008481526020019081526020016000208054905090508160200151421015611dab57600080fd5b6000811415611dc257611dbd836114f1565b611fa7565b611dca61208c565b6002600085815260200190815260200160002060018303815481101515611ded57fe5b90600052602060002090600202016040805190810160405290816000820160009054906101000a900473ffffffffffffffffffffffffffffffffffffffff1673ffffffffffffffffffffffffffffffffffffffff1673ffffffffffffffffffffffffffffffffffffffff16815260200160018201548152505090508260a0015173ffffffffffffffffffffffffffffffffffffffff166108fc82602001519081150290604051600060405180830381858888f193505050501515611eb057600080fd5b611ec33082600001518560600151610888565b15611fa5576000600185815481101515611ed957fe5b906000526020600020906006020160050160146101000a81548160ff02191690831515021790555060018085815481101515611f1157fe5b906000526020600020906006020160050160156101000a81548160ff0219169083151502179055507f357afab190ee87fe0ef1c717f2728d2904d9e415a069d99f4d9382873cb3279d3385604051808373ffffffffffffffffffffffffffffffffffffffff1673ffffffffffffffffffffffffffffffffffffffff1681526020018281526020019250505060405180910390a15b505b505050565b610100604051908101604052806060815260200160008152602001606081526020016000815260200160008152602001600073ffffffffffffffffffffffffffffffffffffffff1681526020016000151581526020016000151581525090565b828054600181600116156101000203166002900490600052602060002090601f016020900481019282601f1061204d57805160ff191683800117855561207b565b8280016001018555821561207b579182015b8281111561207a57825182559160200191906001019061205f565b5b50905061208891906120bc565b5090565b6040805190810160405280600073ffffffffffffffffffffffffffffffffffffffff168152602001600081525090565b6120de91905b808211156120da5760008160009055506001016120c2565b5090565b9056fea165627a7a72305820150b00921c9e04617ecf9fa8f60b1b858ce323ad789fed2128d614e950a455200029",
  "source": "pragma solidity 0.5.1;\r\n\r\nimport \"./DeedContract.sol\";\r\n\r\ncontract AuctionContract{\r\n    \r\n    address deedRepositoryAddress;\r\n    \r\n    Auction[] public auctions;\r\n    mapping(uint => Bid[]) auctionBids;\r\n    mapping(address => uint[]) auctionOwner;\r\n    \r\n    struct Auction{\r\n        string name;\r\n        uint blockDeadline;\r\n        string metadata;\r\n        uint deedId;\r\n        uint256 startPrice;\r\n        address payable owner;\r\n        bool active;\r\n        bool finalized;\r\n        \r\n    }\r\n    \r\n    struct Bid{\r\n        address from;\r\n        uint amount;\r\n    }\r\n    \r\n    event BidSuccess(address _from, uint _auctionId);\r\n    event AuctionCreated(address _owner, uint _auctionId);\r\n    event AuctionCanceled(address _owner, uint _auctionId);\r\n    event AuctionFinalized(address _owner, uint _auctionId);\r\n    \r\n    \r\n    modifier isOwner(uint _auctionId) {\r\n\r\n        require(auctions[_auctionId].owner == msg.sender);\r\n        _;\r\n    }\r\n\r\n    modifier contractIsDeedOwner( uint256 _deedId) {\r\n\r\n        address deedOwner = DeedContract(deedRepositoryAddress).ownerOf(_deedId);\r\n        require(deedOwner == msg.sender);\r\n        _;\r\n    }\r\n    \r\n    constructor(address _deedRepositoryAddress)public{\r\n        deedRepositoryAddress =address( _deedRepositoryAddress);\r\n    }\r\n    \r\n    function getAuctionCount() public view returns(uint){return auctions.length;}\r\n    \r\n    function getBidsCount(uint auctionId) public view returns(uint){return auctionBids[auctionId].length;}\r\n    \r\n    function getAuctionsOf(address _owner) public view returns(uint[] memory){\r\n        \r\n        uint[] storage auctionsOwned = auctionOwner[_owner]; \r\n        return auctionsOwned;\r\n    }\r\n    \r\n    function getCurrentBid(uint _auctionId) public view returns(uint, address){\r\n        \r\n        uint bidsLength = auctionBids[_auctionId].length;\r\n        if(bidsLength > 0 ){\r\n            Bid memory lastBid = auctionBids[_auctionId][bidsLength-1];\r\n            return (lastBid.amount, lastBid.from);\r\n        }\r\n        \r\n        return(0,address(0));\r\n    }\r\n    \r\n    function getAcutionsCountOfOwner(address _owner) public view returns(uint){\r\n        return auctionOwner[_owner].length;\r\n    }\r\n    \r\n    function getAuctionById(uint _auctionId)\r\n        public \r\n        view \r\n        returns\r\n        \r\n        (\r\n            string memory name,\r\n            uint256 blockDeadline,\r\n            uint256 startPrice,\r\n            string memory metadata,\r\n            uint256 deedId,\r\n            address owner,\r\n            bool active,\r\n            bool finalized\r\n        )\r\n        \r\n        {\r\n        \r\n        Auction storage auc = auctions[_auctionId];\r\n                return (\r\n\r\n            auc.name, \r\n            auc.blockDeadline, \r\n            auc.startPrice, \r\n            auc.metadata, \r\n            auc.deedId, \r\n            //auc.deedRepositoryAddress, \r\n            auc.owner, \r\n            auc.active, \r\n            auc.finalized\r\n            );\r\n        \r\n        }\r\n    \r\n        function createAuction(\r\n        \r\n            uint256 _deedId, \r\n            string memory _auctionTitle, \r\n            string memory _metadata, \r\n            uint256 _startPrice, \r\n            uint _blockDeadline\r\n            \r\n            ) \r\n            \r\n            public \r\n            contractIsDeedOwner(_deedId) \r\n            returns(bool)\r\n            \r\n            {\r\n                uint auctionId = auctions.length;\r\n                Auction memory newAuction;\r\n                newAuction.name = _auctionTitle;\r\n                newAuction.blockDeadline = _blockDeadline;\r\n                newAuction.startPrice = _startPrice;\r\n                newAuction.metadata = _metadata;\r\n                newAuction.deedId = _deedId;\r\n                newAuction.owner = msg.sender;\r\n                newAuction.active = true;\r\n                newAuction.finalized = false;\r\n                auctions.push(newAuction);        \r\n                auctionOwner[msg.sender].push(auctionId);\r\n            \r\n                emit AuctionCreated(msg.sender, auctionId);\r\n                return true;\r\n    }\r\n    \r\n    function approveAndTransfer(address _from, address _to,  uint256 _deedId) public returns(bool) {\r\n        \r\n        DeedContract remoteContract = DeedContract(deedRepositoryAddress);\r\n        remoteContract.approve(_to, _deedId);\r\n        remoteContract.transferFrom(_from, _to, _deedId);\r\n        return true;\r\n    }\r\n    \r\n    \r\n    function cancelAuction(uint _auctionId) public isOwner(_auctionId){\r\n        \r\n        Auction memory auction = auctions[_auctionId];\r\n        uint  bidsLength = auctionBids[_auctionId].length;\r\n        \r\n        if(bidsLength > 0 ){\r\n            Bid memory lastBid = auctionBids[_auctionId][bidsLength-1];\r\n            uint160 tempAddr = uint160(lastBid.from);\r\n            address payable lastBidder = address(tempAddr);\r\n            if(!lastBidder.send(lastBid.amount)) {\r\n\r\n                revert();\r\n            }\r\n        }\r\n        \r\n        if(approveAndTransfer(address(this), auction.owner, auction.deedId)){\r\n\r\n            auctions[_auctionId].active = false;\r\n            emit AuctionCanceled(msg.sender, _auctionId);\r\n        }\r\n    }\r\n    \r\n    function finalizeAuction(uint _auctionId) public{\r\n        \r\n        Auction memory auction = auctions[_auctionId];\r\n        uint bidsLength = auctionBids[_auctionId].length;\r\n        \r\n        if(now < auction.blockDeadline){revert();}\r\n        if(bidsLength == 0){ \r\n            cancelAuction(_auctionId);\r\n            \r\n        }else{\r\n            Bid memory lastBid = auctionBids[_auctionId][bidsLength-1];\r\n            if(!auction.owner.send(lastBid.amount)){\r\n                revert();\r\n            }\r\n            \r\n            if(approveAndTransfer(address(this), lastBid.from, auction.deedId)){\r\n\r\n                auctions[_auctionId].active = false;\r\n                auctions[_auctionId].finalized = true;\r\n                emit AuctionFinalized(msg.sender, _auctionId);\r\n            }\r\n        }\r\n        \r\n    }\r\n    \r\n    function bidOnAuction(uint _auctionId) public payable{\r\n        Auction storage auction = auctions[_auctionId];\r\n        uint amountSent = msg.value;\r\n        \r\n        if(msg.sender == auction.owner){ revert();}\r\n        if(now > auction.blockDeadline){ revert();}\r\n        \r\n        uint bidsLength = auctionBids[_auctionId].length;\r\n        uint tempAmount = auction.startPrice;\r\n        Bid memory  lastBid;\r\n        \r\n        if( bidsLength > 0 ) {\r\n\r\n             lastBid = auctionBids[_auctionId][bidsLength - 1];\r\n            tempAmount = lastBid.amount;\r\n        }\r\n        if(amountSent < tempAmount) revert();\r\n        if(bidsLength > 0){\r\n            uint160 tempAddr = uint160(lastBid.from);\r\n            address payable lastBidder = address(tempAddr);\r\n            if(!lastBidder.send(lastBid.amount)) revert();\r\n        }\r\n        \r\n        Bid memory newBid;\r\n        newBid.from = msg.sender;\r\n        newBid.amount = amountSent;\r\n        auctionBids[_auctionId].push(newBid);\r\n        emit BidSuccess(msg.sender, _auctionId);\r\n    }\r\n    \r\n}",
  "sourcePath": "C:/Users/James/Desktop/NODESTUFF/NEW-BC-PROJECTS/DeedAuction/contract/contracts/AuctionContract.sol",
  "compiler": {
    "name": "solc",
    "version": "0.5.1+commit.c8a2cb62.Emscripten.clang"
  },
  "schemaVersion": "3.0.2",
  "updatedAt": "2019-08-22T13:43:46.366Z",
  "devdoc": {
    "methods": {}
  },
  "userdoc": {
    "methods": {}
  }
}